:1000030068656C7000002D2D20E5B8AEE58AA9E681
:100013009687E6A1A30070726F6D7074003C7374D1
:1000230072696E673E202D2D20E4BFAEE694B9E5DC
:10003300B19EE680A700636C656172002D2D20E6FA
:10004300B885E5B18F007265626F6F74002D2D2046
:10005300E9878DE590AF00536574426974003C42B3
:10006300616E6B49443E203C50696E49443E202DED
:100073002D20E8AEBEE7BDAEE588B6E5AE9A494FA2
:10008300E58FA3E4B8BA31005265736574426974AD
:10009300003C42616E6B49443E203C50696E4944CA
:1000A3003E202D2D20E9878DE7BDAEE588B6E5AE70
:1000B3009A494FE58FA3E4B8BA30004765744269A3
:1000C30074003C42616E6B49443E203C50696E496A
:1000D300443E202D2D20E8AFBBE58F96494FE58F99
:1000E300A3E78AB6E680810020496E76616C696475
:1000F30020275365744269742720636F6D6D616EA9
:10010300643A20617267756D656E7473206E6F74E7
:10011300206E756D626572210D0A0020557361674B
:10012300653A0D0A0020202020205365744269742B
:10013300203120310D0A0020496E76616C696420FC
:10014300275365744269742720636F6D6D616E6414
:100153003A2050333120616E64205033302069736C
:100163002053657269616C506F7274210D0A00200F
:10017300496E76616C6964202753657442697427FC
:1001830020636F6D6D616E643A20746F6F206D61D3
:100193006E7920617267756D656E74730D0A002048
:1001A3004578616D706C653A0D0A0020496E766181
:1001B3006C696420275265736574426974272063F0
:1001C3006F6D6D616E643A20617267756D656E74F3
:1001D30073206E6F74206E756D626572210D0A0057
:1001E30020202020205265736574426974203120D9
:1001F300310D0A0020496E76616C696420275265CF
:100203007365744269742720636F6D6D616E643A20
:100213002050333120616E642050333020697320C5
:1002230053657269616C506F7274210D0A00204925
:100233006E76616C696420275265736574426974D4
:100243002720636F6D6D616E643A20746F6F206D4C
:10025300616E7920617267756D656E74730D0A0046
:1002630020496E76616C696420274765744269741E
:100273002720636F6D6D616E643A20617267756DDF
:10028300656E7473206E6F74206E756D6265722077
:100293006F72206F7665722037210D0A00202020AF
:1002A3002020476574426974203120310D0A0046CD
:1002B300616C73650054727565000D0A0020496E08
:1002C30076616C69642027476574426974272063EB
:1002D3006F6D6D616E643A20746F6F206D616E791E
:1002E30020617267756D656E74730D0A0020001BC3
:1002F3005B33316D001B5B34306D001B5B33336D3F
:100303000020496E76616C6964202768656C7027EC
:1003130020636F6D6D616E643A20746F6F206D6141
:100323006E7920617267756D656E74730D0A0020B6
:100333002020202068656C700D0A00205761726EC2
:100343006E696E673A596F757220617267756D6574
:100353006E7420697320746F6F206C6F6E67210D4C
:100363000A0D0A002050726F6D7074206973206348
:100373006861676E656420746F2022002573220D07
:100383000A0D0A0020496E76616C69642027707239
:100393006F6D70742720636F6D6D616E643A2074A6
:1003A3006F6F20666577206F72206D616E792061B3
:1003B3007267756D656E74730D0A0020202020200E
:1003C30070726F6D7074203C737472696E673E0D4A
:1003D3000A001B5B324A001B5B480020496E7661B2
:1003E3006C69642027636C6561722720636F6D6D90
:1003F300616E643A20746F6F206D616E7920617253
:1004030067756D656E74730D0A00202020202063CC
:100413006C6561720D0A0020496E76616C69642017
:10042300277265626F6F742720636F6D6D616E64F1
:100433003A20746F6F206D616E7920617267756DFC
:10044300656E74730D0A0020202020207265626F90
:100453006F740D0A00FF0003FF135AFF0008FF002B
:1004630009FF0019FF1887FF0008FF0020FF00396C
:10047300FF1ACAFF0008FF003FFF0049FF1B55FF9B
:100483000008FF0050FF005AFF147BFF0008FF0025
:1004930061FF008BFF1599FF0008FF0094FF00BE6A
:1004A300FF16B7FF0008FF00C500000000000000B2
:0504B300000000000044
:10147B00900077E0FFA3E0F9A3E0FAA3E09000234C
:10148B00C9F0A3EAF0A3E9F0E4A3F0A3F0EF24FD85
:10149B00600302157D900023E0FBA3E0FAA3E0F9C3
:1014AB009000061207581205AE24D0900026F0D3F8
:1014BB00940940087BFF7A0079EB8028900023E0A9
:1014CB00FBA3E0FAA3E0F99000031207581205AE54
:1014DB006433701C900026E0FF6003B401127BFFA5
:1014EB007A01793A121C1F7BFF7A01791E02158C47
:1014FB007F01900026E0F8EF08800123D8FD9000D3
:10150B0027F0900023E0FBA3E0FAA3E0F99000039F
:10151B001207581205AEB43006900027E042801235
:10152B0005AEFFB43106900027E04290EFB43206CF
:10153B00900027E042A01205AEB43306900027E0DE
:10154B0042B01205AEFFB43406900027E042C0EF64
:10155B00B43506900027E042C81205AEB4360690AB
:10156B000027E042E81205AEB43722900027E04294
:10157B00F8227BFF7A017972121C1F7BFF7A0179AB
:0E158B00A2121C1F7BFF7A017928121C1F225E
:10159900900077E0FFA3E0F9A3E0FAA3E09000232D
:1015A900C9F0A3EAF0A3E9F0E4A3F0A3F0EF24FD66
:1015B900600302169B900023E0FBA3E0FAA3E0F985
:1015C9009000061207581205AE24D0900026F0D3D9
:1015D900940940087BFF7A0179AE8028900023E0C6
:1015E900FBA3E0FAA3E0F99000031207581205AE35
:1015F9006433701C900026E0FF6003B401127BFF86
:101609007A0179F7121C1F7BFF7A01791E0216AA4B
:101619007FFE900026E0F8EF08800123D8FD9000B6
:1016290027F0900023E0FBA3E0FAA3E0F990000380
:101639001207581205AEB43006900027E052801206
:1016490005AEFFB43106900027E05290EFB43206A0
:10165900900027E052A01205AEB43306900027E0AF
:1016690052B01205AEFFB43406900027E052C0EF25
:10167900B43506900027E052C81205AEB43606907C
:101689000027E052E81205AEB43722900027E05255
:10169900F8227BFF7A027931121C1F7BFF7A0179CC
:0E16A900A2121C1F7BFF7A0179E3121C1F2284
:1016B700900077E0FFA3E0F9A3E0FAA3E09000230E
:1016C700C9F0A3EAF0A3E9F0E4A3F0A3F0EF24FD47
:1016D700600302179E900023E0FBA3E0FAA3E0F962
:1016E7009000061207581205AE24D0900026F0D3BA
:1016F700940740127BFF7A027963121C1F7BFF7AE3
:1017070001791E0217AD900023E0FBA3E0FAA3E0E6
:10171700F99000031207581205AEFFB43006900087
:1017270027E580F0EFB43106900027E590F0EFB49D
:101737003206900027E5A0F0EFB43306900027E5C6
:10174700B0F0EFB43406900027E5C0F0EFB43506EB
:10175700900027E5C8F0EFB43606900027E5E8F0DB
:10176700EFB43706900027E5F8F07F01900026E0F8
:10177700F8EF08800123D8FDFF900027E05F7BFF8B
:1017870070067A0279B280047A0279B8121C1F7B3C
:10179700FF7A0279BD80187BFF7A0279C0121C1F7D
:1017A7007BFF7A0179A2121C1F7BFF7A0279A012B4
:0317B7001C1F22D2
:10135A00900077E0FFA3E0F9A3E0FAA3E09000236E
:10136A00C9F0A3EAF0A3E9F0EF14600302145FE402
:10137A00900026F0900026E0FF3395E0FE9004618D
:10138A0075F00CEF1206DDEE75F00CA42583F583DB
:10139A00E493FB740193FA7402934A4B70030214A8
:1013AA00577BFF7A0279F0121C1F900026E0FF3368
:1013BA0095E0FE90045875F00CEF1206DDEE75F01C
:1013CA000CA42583F583E493FB740193FA740293C6
:1013DA00F990002A74FFF0A37402F0A374F2F0A348
:1013EA0074FFF0A37402F0A374F8F0121BC57BFF1C
:1013FA007A0279F0121C1F900026E0FF3395E0FE76
:10140A0090046175F00CEF1206DDEE75F00CA42560
:10141A0083F583E493FB740193FA740293F99000C1
:10142A002A74FFF0A37402F0A374FEF0A374FFF011
:10143A00A37402F0A374F8F0121BC57BFF7A027939
:10144A00BD121C1F900026E004F002137E7BFF7A77
:10145A000279BD80187BFF7A037904121C1F7BFF77
:10146A007A01791E121C1F7BFF7A037932121C1F24
:01147A00224F
:10188700900077E0FFA3E0F9A3E0FAA3E09000233C
:10189700C9F0A3EAF0A3E9F0EF24FE7078900023E3
:1018A700E0FBA3E0FAA3E0F9900003120758121C2B
:1018B70090C3EF9408EE6480948040087BFF7A031E
:1018C700793E8069900023E0FBA3E0FAA3E0F9905A
:1018D700000312075878767C007D007E007F08128F
:1018E70005887BFF7A037967121C1F90002974FF14
:1018F700F0A37403F0A3747FF0A3E4F0A37400F0E3
:10190700A37476F07B007A0079351208F77B007AAA
:1019170000793580187BFF7A037987121C1F7BFFBC
:101927007A01791E121C1F7BFF7A0379BE121C1FD6
:01193700228D
:101ACA00900077E0FFA3E0F9A3E0FAA3E0900023F7
:101ADA00C9F0A3EAF0A3E9F0EF1470117BFF7A03CF
:101AEA0079D5121C1F7BFF7A0379DA80187BFF7A7B
:101AFA000379DE121C1F7BFF7A01791E121C1F7BE1
:091B0A00FF7A04790D121C1F2260
:101B5500900077E0FFA3E0F9A3E0FAA3E09000236B
:101B6500C9F0A3EAF0A3E9F0EF1470030200007BCB
:101B7500FF7A04791A121C1F7BFF7A01791E121C49
:0B1B85001F7BFF7A04794A121C1F220C
:101B1300900023EBF0A3EAF0A3E9F04A6033E4FF7B
:101B2300FE900023E0FBA3E0FAA3E0F98F828E830B
:101B33001205C7FD601BC39441400FEDD3945A5067
:101B4300098F828E8374201205F40FBF00010E806B
:021B5300D0229E
:0B1CB100121C73121229121A7980FB1A
:1010F5003E001B5B313B33326D001B5B34306D00B2
:101105001B5B324A001B5B48002A2A2A2A2A2A2A04
:101115002A2A2A2A2A2A2A2A2A2A2A2A2A2A2A2A2A
:101125002A2A2A2A2A2A0D0A0020202020204C6952
:101135006E7A205465726D696E616C205379737493
:10114500656D202020200D0A001B5B33316D0020CA
:1011550020202020202020E69E97E5AD903531E720
:10116500BB88E7ABAFE7B3BBE7BB9F2020202020C0
:1011750020200D0A001B5B33346D000D0A001B5B3C
:1011850033376D000D0A20E8ADA6E5918A3AE6826F
:10119500A8E8BE93E585A5E79A84E58685E5AEB919
:1011A500E8BF87E995BF210D0A0D0A0020E4B88D37
:1011B500E698AFE58685E983A8E68896E5A496E9ED
:1011C50083A8E591BDE4BBA4EFBC8CE4B99FE4B86A
:1011D5008DE698AFE58FAFE8BF90E8A18CE79A84DC
:1011E500E7A88BE5BA8F2EE5A682E69E9CE99C8052
:1011F500E8A681E5B8AEE58AA9E8AFB7E8BE93E50C
:1012050085A5002768656C70270D0A0D0A001B5B14
:1012150033336D00000000000000000000000000F6
:0412250000000000C5
:10122900E4900000F0A3F0900000E0FEA3E0FF903E
:10123900045875F00C1206DDEE75F00CA42583F543
:1012490083E493FB740193FA7402934A4B603190DF
:10125900045875F00CEF1206DDEE75F00CA4258329
:10126900F583E493FB740193FA740293F9121B1347
:10127900900001E004F070AF900000E004F080A756
:10128900E47822F67875F67823F6FE7F40FDFB7A3E
:101299000079351207E778767C007D007BFF7A10AC
:1012A90079F57E007F081205887BFF7A1079F7129D
:1012B9001C1F7BFF7A1079FF121C1F7BFF7A1179A3
:1012C90005121C1F7BFF7A11790A121C1F7BFF7AFA
:1012D90011790E121C1F90002A74FFF0A37411F0EB
:1012E900A3744EF0A374FFF0A37410F0A374FFF07D
:1012F9007BFF7A11792E121BC590002A74FFF0A387
:101309007411F0A3747AF0A374FFF0A37410F0A31E
:1013190074FFF07BFF7A117954121BC57BFF7A1198
:10132900790E121C1F7BFF7A117980121C1F900005
:101339002A74FFF0A37411F0A37483F0A374FFF06F
:10134900A37410F0A374FFF07B007A007976021B76
:01135900C5CE
:100F7000900001EFF078027C007D017BFF7A12790E
:100F8000197E007F10120588E4900012F0A3F09003
:100F90000001E0FF24BF24E6500824FA24E65002B2
:100FA0008004E47823F67834E6FEC36480949040AD
:100FB00007E4F67823F6800974242EF8A60778341F
:100FC000067823E660030210F4D37834E664809454
:100FD0008050030210F47824E6645B60030210E49E
:100FE000D37834E66480948250030210B77B017A90
:100FF000007834E6F9FF3395E0FEC3EB9FEE6480A2
:10100000F8EA64809840030210B774242BF8E6FFD6
:10101000B43B11900013E004F07006900012E0045D
:10102000F00210AFC3EF648094B0405FD3EF6480F0
:1010300094B95057900013E025E0FF900012E03380
:10104000FE74022FF58274003EF583E0FEA3E0FFFC
:101050007C007D0A12063974242BF8E6FD3395E0F6
:10106000FCED24D0FDEC34FFCD2FCD3EFC900013E1
:10107000E025E0FF900012E033FE74022FF5827449
:10108000003EF583ECF0A3EDF08024E9FF3395E01A
:10109000FEEF24FFFFEE34FFFEEFB50312EEB502C4
:1010A0000E900013E004F07006900012E004F00BC4
:1010B000BB00010A020FF17834E62423F8E624BCD1
:1010C0007022D37822E6648094804010167F081244
:1010D0001CBC7F20121CBC7F08121CBC7822E6249A
:1010E00035F8E4F6E47834F6FE7F10FDFB7A0079FB
:0510F000241207E722B5
:1017BA00900001EFF0604524FA24FD501C700302EA
:1017CA00188614603724FD6033248F600C14600976
:1017DA00246470377823760122D37822E6648094D1
:1017EA00804010167F08121CBC7F20121CBC7F0888
:1017FA00121CBC7822E62435F8E4F6227F0D121C6E
:10180A00BC7F0A121CBC7875760122C37822E66472
:10181A008094C04054E4F6FE7F40FDFB7A0079359F
:10182A001207E790002A74FFF0A37411F0A3744E14
:10183A00F0A374FFF0A37410F0A374FFF07BFF7A97
:10184A00117989121BC590002A74FFF0A37411F054
:10185A00A37483F0A374FFF0A37410F0A374FFF0D1
:10186A007B007A007976021BC5900001E0FF78229E
:0D187A00E62435F8A607121CBC78220622D1
:101C550030981A900000E599F0C2987823E660055F
:0E1C6500E0FF020F70900000E0FF1217BA229D
:100DC400900023EBF0A3EAF0A3E9F0E490002FF005
:100DD400FF900023E0FBA3E0FAA3E0F91205AEFEC6
:100DE4007003020EE8B43B0DEF64026008EF640385
:100DF4006003020EE8EFB40309900030E0A3F002B0
:100E04000ED6EFB40218EEB4220BE4900031F012C7
:100E14000627020ED69000317402F0020ED6EE645C
:100E2400206004EEB4090BE4120627900031F002AE
:100E34000ED6EEB422509000317402F0900023E0FC
:100E4400FBA3E475F0011206B6A9F0FAE412062732
:100E5400900023E0FBA3E0FAA3E0F9C003C002C0C2
:100E640001900029E0FBA3E0FAA3E0F990002FE051
:100E7400FE04F0EEFD3395E08D82F58374031206D3
:100E8400CC120788804CEEB45C0B900030EFF0A3DA
:100E94007403F0803DEF7034900023E0FBA3E0FA8C
:100EA400A3E0F9C003C002C001900029E0FBA3E065
:100EB400FAA3E0F990002FE0FE04F0EEFD3395E094
:100EC4008D82F58374031206CC1207889000317466
:100ED40001F0900031E0FF900024E475F001120667
:100EE400A0020DD57B007A007900C003C002C001C6
:100EF400900029E0FBA3E0FAA3E0F990002FE0FFC3
:100F0400FD3395E08D82F58374031206CC120788B5
:100F1400900026E0FBA3E0FAA3E04A4B600B9000AC
:100F240026A3A3E0F9EF120627900023E0FBA3E039
:100F3400FAA3E0F91205AEB43B12900023A3E475C2
:100F4400F0011206B6A9F0FAE4120627900023E095
:100F5400FBA3E0FAA3E0F9C003C002C00190002C97
:0C0F6400E0FBA3E0FAA3E0F91207092269
:100BF700900000EBF0A3EAF0A3E9F0900020E4F006
:100C0700A3F0A3F0900000E0FBA3E0FAA3E0F91241
:100C170005AE7003020DC37E007F187D007B017A4D
:100C27000079041207E79000267401F0A37400F01E
:100C3700A37403F0A37401F0A37400F0A37404F089
:100C4700A37401F0A37400F0A3741CF0900000E0FB
:100C5700FBA3E0FAA3E0F9120DC4900004E0FBA3A4
:100C6700E0FAA3E0F9121B13900003E0D364809429
:100C7700805003020DABE490001FF090001FE0FFCF
:100C87003395E0FE90046175F00CEF1206DDEE750A
:100C9700F00CA42583F583E493FB740193FA7402A3
:100CA700934A4B60747C007D0C12063974582FF9F7
:100CB70074043EFA90002074FFF0A3EAF0A3E9F071
:100CC700900004E0FBA3E0FAA3E0F9121C90900067
:100CD70029EEF0A3EFF0900020E0FBA3E0FAA3E0F9
:100CE700F91206E9C002C001900004E0F9A3E0FA96
:100CF700A3E0900026C9F0A3EAF0A3E9F0D001D061
:100D0700021219BBEF6012900020E4F0A3F0A3F0E9
:100D170090001FE004F0020C82900020A3E0FAA3E9
:100D2700E04A705690002A74FFF0A37411F0A37480
:100D37004EF0A374FFF0A37410F0A374FFF09000BB
:100D470004E0FBA3E0FAA3E0F9121BC57BFF7A11CD
:100D570079B1121C1F90002A74FFF0A37412F0A33C
:100D67007413F0A374FFF0A37410F0A374FFF07B67
:100D7700FF7A127908121BC5802A900003E09000C1
:100D870077F09000787401F0A37400F0A37404F076
:100D9700900020E0FBA3E0FAA3E0F990000312071C
:100DA700581207E190001CE0F9A3E0FAA3E09000D5
:0D0DB70000C9F0A3EAF0A3E9F0020C0B2242
:101A7900309803121C557875E660457B007A007929
:101A890035120BF790002A74FFF0A37411F0A374B8
:101A990083F0A374FFF0A37410F0A374FFF07B002C
:101AA9007A007976121BC57E007F407D007B007A23
:101AB9000079351207E7E47822F67834F67875F676
:011AC90022FA
:101C36001B5B313B33326D001B5B34306D00303142
:0F1C46003233343536373839414243444546004E
:081CBC008F993099FDC29922B5
:081C1700E0FBA3E0FAA3E0F9F1
:101C1F00E94A60121205AEFF600C121CBC74012958
:071C2F00F9E43AFA80EE220D
:101BC500900027EBF0A3EAF0A3E9F0A3121C17900D
:101BD500002D121C17900027121C177BFF7A1C7909
:0B1BE50036121C1F7A1C793E021C1FE8
:101B9000EF540FFDFBC3EF9BFFE49400C4F854F037
:101BA000C868FEEFC4540F482444F582741C3EF507
:101BB00083E493FF121CBCED901C4493FF121CBCE9
:051BC0007F20021CBCA7
:101A2200900070EBF0A3EAF0A3E9F0A3ECF0A3EDD1
:101A3200F0E4A3F0A3F0900073E0FEA3E0FFA3E0C4
:101A4200FCA3E0FDC39FEE6480F8EC64809850260E
:101A5200900070E0FBA3E0FAA3E0F98D828C831280
:101A620005C7FF121B90900076E004F070C890004A
:071A720075E004F080C022C2
:101C730053877F759850438E40538EFE53890F438D
:0D1C83008920758BF8758DF8C2ABD28E22CA
:1019380090004EEEF0A3EFF0E4FBFA90004EE0FECC
:10194800A3E0FF7C007D0A12064B74502BF58274CD
:10195800003AF583EDF074502BF58274003AF58364
:10196800E0FF3395E0FEC390004FE09FFF90004EEC
:10197800E09EFE7C007D0A12064BEEF0A3EFF00B12
:10198800BB00010AD3EF9400EE940050AEEB1B703D
:10199800011AC3EA64809480401874502BF582744D
:1019A800003AF583E02430FF121CBCEB1B70E31AED
:0319B80080E022AA
:03000000021CA53A
:0C1CA500787FE4F6D8FD75817D021CB14B
:1004B800E709F608DFFA8046E709F208DFFA803E26
:1004C80088828C83E709F0A3DFFA8032E309F60813
:1004D800DFFA8078E309F208DFFA807088828C837B
:1004E800E309F0A3DFFA806489828A83E0A3F6082F
:1004F800DFFA805889828A83E0A3F208DFFA804C09
:1005080080D280FA80C680D4806980F280338010DF
:1005180080A680EA809A80A880DA80E280CA803348
:1005280089828A83ECFAE493A3C8C582C8CCC583C0
:10053800CCF0A3C8C582C8CCC583CCDFE9DEE78090
:100548000D89828A83E493A3F608DFF9ECFAA9F00F
:10055800EDFB2289828A83ECFAE0A3C8C582C8CC65
:10056800C583CCF0A3C8C582C8CCC583CCDFEADE7E
:10057800E880DB89828A83E493A3F208DFF980CCE0
:1005880088F0EF60010E4E60C388F0ED2402B404D9
:100598000050B9F582EB2402B4040050AF23234580
:0605A80082239005087398
:1005AE00BB010689828A83E0225002E722BBFE024B
:0905BE00E32289828A83E493227E
:1005C700BB010CE58229F582E5833AF583E02250E9
:1005D70006E92582F8E622BBFE06E92582F8E22233
:0D05E700E58229F582E5833AF583E493224D
:1005F400BB010FF8E58229F582E5833AF583E0280B
:10060400F0225009C58229F8E58226F622BBFE09AC
:10061400C58229F8E22582F222F8EA2583F583E9E6
:03062400932822F6
:10062700BB010689828A83F0225002F722BBFE01B2
:02063700F322AC
:10063900EF8DF0A4A8F0CF8CF0A428CE8DF0A42ED5
:02064900FE228F
:10064B00BC000BBE0029EF8DF084FFADF022E4CC93
:10065B00F875F008EF2FFFEE33FEEC33FCEE9DEC5C
:10066B00984005FCEE9DFE0FD5F0E9E4CEFD22EDA2
:10067B00F8F5F0EE8420D21CFEADF075F008EF2FEC
:10068B00FFED33FD4007985006D5F0F222C398FDDD
:05069B000FD5F0EA227A
:1006A000C5F0F8A3E028F0C5F0F8E58215827002E5
:0606B0001583E038F02282
:1006B600A3F8E0C5F025F0F0E582158270021583F7
:0606C600E0C838F0E82254
:1006CC00F5F0C582A4C582C5F0C583A42583F58346
:0106DC0022FB
:0C06DD00A42582F582E5F03583F5832228
:1006E900BB010789828A830208255005E9F80208B7
:1006F90013BBFE05E9F802084E89828A8302086065
:10070900BB011A89828A83D0F0D0E0F8D0E0F9D011
:10071900E0FAD0E0FBE8C0E0C0F00208455016E975
:10072900F8D083D082D0E0F9D0E0FAD0E0FBC082E3
:10073900C08302081CBBFE16E9F8D083D082D0E042
:0F074900F9D0E0FAD0E0FBC082C083020857224B
:10075800BB010DE58229F582E5833AF58302082578
:100768005007E92582F8020813BBFE07E92582F83D
:1007780002084EE58229F582E5833AF5830208608E
:10078800BB0120E58229F582E5833AF583D0F0D0D4
:10079800E0F8D0E0F9D0E0FAD0E0FBE8C0E0C0F043
:1007A8000208455018E92582F8D083D082D0E0F9B4
:1007B800D0E0FAD0E0FBC082C08302081CBBFE1860
:1007C800E92582F8D083D082D0E0F9D0E0FAD0E0F1
:0907D800FBC082C0830208572215
:0607E1008A838982E473A3
:10089200E5082429F582E43400F583E00508229076
:1008A2000026300703900029E475F00112082E0299
:1008B20005AE2000E97F2ED2008018EF540F24905D
:1008C200D43440D4FF30040BEF24BFB41A005003D9
:1008D2002461FFE50960021509050CE50C700205AB
:1008E2000B30070E900026E475F00112082EEF027D
:1008F2000627021BF07403D2078003E4C207F5083F
:10090200900026120845E4F509F50BF50CE509609F
:10091200077F201208D580F5750AFFC201C200C206
:1009220002C203C205C206C2081208A1FF700D303E
:1009320007057F001208E6AF0CAE0B22B4255FC29A
:10094200D5C2041208A1FF24D0B40A00501A75F0CF
:100952000A780930D50508B6FF0106C6A426F62096
:10096200D5047002D20380D924CFB41A00EF500408
:10097200C2E5D204020AE7D20180C6D20080C0D208
:100982000280BCD2D580BAD20580B47F201208D5AD
:100992002002077401B5090040F1120892FF120803
:1009A200D502090FD208D2068095120892FB1208CE
:1009B20092FA120892F94A4B700679B87A0B7BFFC9
:1009C20020022EE509602A7E008E827583001205C0
:1009D200C760060EEE650A70F0C2D5EBC0E0EAC051
:1009E200E0E9C0E0EE120B2ED0E0F9D0E0FAD0E060
:1009F200FB1205AEFF60AAEBC0E0EAC0E0E9C0E08E
:100A02001208D5D0E02401F9D0E03400FAD0E0FB9E
:100A1200E50A0460DCD50AD980877BFF7A0B792A44
:100A2200D202809C791080027908C206C20880082E
:100A3200D2D5790A8004790AC2D5E50A047002F592
:100A42000AE4FAFDFEFF120892FC7B082001131251
:100A52000892FD7B1030000A120892FE120892FFE3
:100A62007B20EC3382D592D55013C3E43000069F2D
:100A7200FFE49EFEE42001039DFDE49CFCE4CBF830
:100A8200C201EC700CCFCECDCCE824F8F870F38024
:100A920017C3EF33FFEE33FEED33FDEC33FCEB33E4
:100AA200FB994002FB0FD8E9EB300105F8D0E0C416
:100AB20048B201C0E00AEC4D4E4F78207B0070C274
:100AC200EAB50A0040BCC0E0120B30D0F0D0E02002
:100AD2000104C4C0E0C4B201C0F01208BED0F0D517
:100AE200F0EB02090F12086C09AC530A2658097D73
:100AF2004C0979420A2A4F0A32440A32490992437E
:100B02000A38550A1C460A1C450A1C470BD85009CC
:100B1200812D09852E09A82B09892309A6200BC638
:100B22002A094148000009A03F3F3F00790AA2D5A7
:100B3200200314300509B910020404B9080104A203
:0E0B4200D52006025001042002689202B50977
:100B5000005034C0E07F203003197F30A2027206BB
:100B60007205500F120B87C202C206C205C2087F6F
:100B700030800F300503E9C0E01208D5300503D0FE
:100B8000E0F9D0E0B509CC3005177F30B9100C1270
:100B900008D57F583004077F788003B9080312080E
:100BA000D53002057F2D0208D57F202008F87F2B45
:100BB0002006F322920280CF286E756C6C29002DDE
:100BC00050434958D2011208923001F8C201780905
:100BD00030D50108F60209411208922403B4050039
:100BE0004001E4900BBF931208C6743A1208C6D2B3
:070BF00003750904020A2647
:1019BB00900023EBF0A3EAF0A3E9F0900026E0FB04
:1019CB00A3E0FAA3E0F91205AEFE900023E0FBA31F
:1019DB00E0FAA3E0F91205AEFD6E702AED600E90F1
:1019EB00002974FFF5F01206A045F070037F00226A
:1019FB00900024E475F0011206A0900027E475F026
:101A0B00011206A080B5D3EE6480F8ED6480984097
:071A1B00037F01227FFF227F
:101C9000E4FFFE1205AE600C0FEF70010E09E97053
:051CA000F20A80EF22B2
:1007E700EF4E6012EF60010EEDBB010B89828A8329
:1007F700F0A3DFFCDEFA2289F05007F709DFFCA936
:0C080700F022BBFEFCF309DFFCA9F0228C
:09081300E6FB08E6FA08E6F9220A
:09081C00EBF608EAF608E9F62201
:09082500E0FBA3E0FAA3E0F922D4
:10082E00F8E0FBA3A3E0F925F0F0E5821582700253
:07083E001583E0FA38F022F7
:09084500EBF0A3EAF0A3E9F022B4
:09084E00E2FB08E2FA08E2F922DB
:09085700EBF208EAF208E9F222D2
:0C086000E493FB740193FA740293F922F4
:10086C00D083D082F8E4937012740193700DA3A31B
:10087C0093F8740193F5828883E47374029368602F
:06088C00EFA3A3A380DF2F
:101BF000EFB40A07740D121BFB740A309811A899F0
:101C0000B8130CC2983098FDA899C298B811F63054
:071C100099FDC299F599222C
:00000001FF
